S00E0000427574746F6E2E737265639A
S113000000FAFF1FB1010000AF010000030200006D
S113001000000000000000000000000000000000DC
S11300200000000000000000000000000F020000BB
S113003000000000000000008102000083020000B4
S113004079020000790200007902000079020000C0
S113005079020000790200007902000079020000B0
S11300604102000079020000490200007902000008
S113007051020000590200006102000079020000F0
S11300807902000079020000790200007902000080
S11300907902000079020000790200007902000070
S11300A07902000079020000790200007902000060
S11300B07902000079020000690200007102000068
S11300C080B500F00AF8FA20800000F01CF81A4805
S11300D0016820220A430260F5E71848016880227B
S11300E0D2050A43026016480168802252000A437E
S11300F00260202013490A6802430A6012490A6810
S113010010430860704700B512E01049104A1160AE
S113011010490A68012313430B600A68042313433C
S11301200B6000220C4B1A600A68D203FCD5401EF7
S11301300028EAD100BD00004CF00F4028510640D1
S113014014A00440540000F8400000F87FBB0000F5
S113015014E000E010E000E018E000E080B50C4896
S11301600168890403D50B490B4A116004E00A496C
S11301700A4A0A600A4A0A600A490B4A116001687D
S11301808022914320220A43026000F00FF801BD4F
S11301900020054020C528D90420054020C50000C2
S11301A028D90000FFFF0000082005407047FEE743
S11301B072B60548054901600A6882F30888044854
S11301C0804762B60348004708ED00E000000000E5
S11301D05D0100002502000000F00DF8002801D0A8
S11301E000BF00BF00BF00BF002000BF00BFFFF77B
S11301F067FF00F002F80120704780B500F002F8B4
S113020001BDFEE70746384600F002F8FBE7FEE7CB
S113021080B500BF00BF024A11001820ABBEFBE747
S1130220260002000548014603B4684680F30988A5
S113023000BF00BF00BF00BFFFF7CEFFA5EDF5FE76
S11302400048004779020000004800477902000096
S11302500048004779020000004800477902000086
S11302600048004779020000004800477902000076
S11302700048004779020000004800477902000066
S1070280FEE7FEE7AC
S1130400FFFFFFFFFFFFFFFFFFFFFFFFFEFFFFFFF9
S9030225D5
