S00C0000417373332E73726563BE
S1130400FFFFFFFFFFFFFFFFFFFFFFFFFEFFFFFFF9
S113A00050FAFF1FE1AC000027AB0000DFAC0000FA
S113A010000000000000000000000000000000003C
S113A0200000000000000000000000006FAD000010
S113A03000000000000000007BAD0000E3A700006A
S113A040E5AD0000E5AD0000E5AD0000E5AD0000C4
S113A050E5AD0000E5AD0000E5AD0000E5AD0000B4
S113A060ADAD0000E5AD0000B5AD0000E5AD00000C
S113A070BDAD0000C5AD0000CDAD0000E5AD0000F4
S113A080E5AD0000E5AD0000E5AD0000E5AD000084
S113A090E5AD0000E5AD0000E5AD0000E5AD000074
S113A0A0E5AD0000E5AD0000CDAB0000E5AD00007E
S113A0B0E5AD0000E5AD0000D5AD0000DDAD00006C
S113A0C030B503000020364CA3420BD0354CA342DC
S113A0D008D0354CA34205D0344CA34202D0344CB2
S113A0E0A34210D18C001C59324D25408C001D51C7
S113A0F08C001C59D2B21202E025ED001540254314
S113A10089005D5000E00120C0B230BD30B50300CD
S113A1100020234CA3420BD0224CA34208D0224C53
S113A120A34205D0214CA34202D0214CA3420FD11B
S113A1308C001C590225AC438D005C518C001C59C9
S113A140D2B2520002252A40224389005A5000E02C
S113A1500120C0B230BD30B503000020104CA34232
S113A1600BD0104CA34208D00F4CA34205D00F4C87
S113A170A34202D00E4CA3420FD18C001C590125DE
S113A180AC438D005C518C001C59D2B21500ED0714
S113A190ED0F254389005D5000E00120C0B230BDC1
S113A1A00090044000A0044000B0044000C00440FB
S113A1B000D00440FFF8FFFF00B50B4800680521FC
S113A1C048430A4900F057FC401E0949086007202B
S113A1D00849086000BD00B5074900220A600A6802
S113A1E08242FCD300BD00003CF8FF1FA0860100A2
S113A1F014E000E010E000E040F8FF1F25009400A8
S113A2004072FF00FF6552008020FF00FF97D800D6
S113A210FF6550009653FF00F027FF0030FF300029
S113A2200AF0FF00FF00960000FF82004072FF006A
S113A230D9F230001FF00F00006CDC0200000000B7
S10BA240000000000000000012
S113A41010B50200C24B0020D2B2202A3ED0242A1A
S113A42047D02C2A50D0322A59D0362A62D0372A23
S113A4306BD0382A74D0392A7DD03B2A00D185E0EC
S113A4403D2A00D18DE0402A00D195E0452A00D173
S113A450A1E0492A00D1ADE04A2A00D1B9E04B2A53
S113A46000D1C5E04C2A00D1D1E04D2A00D1DDE075
S113A470562A00D1E9E0612A00D1F5E0662A00D12C
S113A48001E16A2A00D10DE16B2A00D119E16C2A9D
S113A49000D125E1732A00D131E13EE180229A58AE
S113A4A08A4380241A5180229A5811438022995059
S113A4B033E190229A588A4390241A5190229A5850
S113A4C011439022995028E1B0229A588A43B0242B
S113A4D01A51B0229A581143B02299501DE1C82252
S113A4E09A588A43C8241A51C8229A581143C82238
S113A4F0995012E1D8229A588A43D8241A51D82262
S113A5009A581143D822995007E1DC229A588A4379
S113A510DC241A51DC229A581143DC229950FCE0C5
S113A520E0229A588A43E0241A51E0229A581143AF
S113A530E0229950F1E0E4229A588A43E4241A5123
S113A540E4229A581143E4229950E6E0EC229A5806
S113A5508A43EC241A51EC229A581143EC22995064
S113A560DBE0F4229A588A43F4241A51F4229A58CC
S113A5701143F4229950D0E0802252009A588A4321
S113A580802464001A51802252009A581143802278
S113A59052009950C1E08A2252009A588A438A2470
S113A5A064001A518A2252009A5811438A22520096
S113A5B09950B2E0922252009A588A43922464003D
S113A5C01A51922252009A581143922252009950E1
S113A5D0A3E0942252009A588A43942464001A51A6
S113A5E0942252009A58114394225200995094E0B4
S113A5F0962252009A588A43962464001A5196224D
S113A60052009A58114396225200995085E098229C
S113A61052009A588A43982464001A51982252008E
S113A6209A58114398225200995076E09A22520087
S113A6309A588A439A2464001A519A2252009A58CA
S113A64011439A225200995067E0AC2252009A5862
S113A6508A43AC2464001A51AC2252009A58114324
S113A660AC225200995058E0C22252009A588A43B0
S113A670C22464001A51C22252009A581143C222C1
S113A6805200995049E0CC2252009A588A43CC2473
S113A69064001A51CC2252009A581143CC22520021
S113A6A099503AE0D42252009A588A43D424640040
S113A6B01A51D42252009A581143D422520099506C
S113A6C02BE0D62252009A588A43D62464001A51A9
S113A6D0D62252009A581143D622520099501CE0B7
S113A6E0D82252009A588A43D82464001A51D82296
S113A6F052009A581143D822520099500DE0E62294
S113A70052009A588A43E62464001A51E622520001
S113A7109A581143E62252009950C0B210BD00006D
S113A72000500640F8B505000F00160000248021F3
S113A730C9054A20FFF76CFE002800D00124280038
S113A74001220521FFF7BCFC002800D00124784D2C
S113A75001222021280000F0F9F8002800D001246B
S113A7602021280000F016F9002800D00124380028
S113A77001220421FFF7A4FC002800D001240122B7
S113A7801021280000F0E2F8002800D00124102154
S113A790280000F0FFF8002800D001248021C9051A
S113A7A04C20FFF735FE002800D0012430000122A0
S113A7B00121FFF785FC002800D001245D4D012212
S113A7C00221280000F0C2F8002800D00124022150
S113A7D0280000F0DFF8002800D001242000C0B2D7
S113A7E0F2BD38B554480168491C0160534C2068D7
S113A7F0401C20602068FF280ED1002020604C4DB2
S113A8002021280000F0FAF81021280000F0F6F8C2
S113A8100221484800F0F2F8206849490978884242
S113A82003D12021424800F0CFF820684549097837
S113A830884203D110213E4800F0C6F820684249FE
S113A8400978884203D102213A4800F0BDF831BDAD
S113A85038B504000025280007E0A8002018416846
S113A860A800205800F004F86D1C052DF5D331BD67
S113A870FEB5002422000200120C6B469A71020AF3
S113A8806B465A716A4610710A00120C080A6B462C
S113A8909B79D21A6B465A726A465279801A6A4672
S113A8A0107268460079081A6946C87131E0FE25BD
S113A8B0684686796846407A2100C9B2484329002F
S113A8C000F0D6F83618684647796846007A2100C1
S113A8D0C9B24843290000F0CBF83F186846017913
S113A8E000916846C0792100C9B24843290000F0AC
S113A8F0BFF800990818F6B23104FFB23A020A43CD
S113A900C0B2104300F00AF8FA20C000FFF763FC5D
S113A910641C2000C0B2FF28C9D1F7BD0100090C96
S113A920074A1170010A074A1170074908707047F5
S113A930400000F8C00000F840F8FF1F44F8FF1F73
S113A94049F8FF1F4AF8FF1F4BF8FF1F10B503001B
S113A9500020F8242406A3420BD0364CA34208D08E
S113A960354CA34205D0354CA34202D0344CA3420B
S113A9700DD1D2B2002A02D0012A04D008E05A69CB
S113A9808A435A6104E05A691143596100E0012085
S113A990C0B210BD00B502000020F8231B069A4285
S113A9A00BD0244B9A4208D0234B9A4205D0234B18
S113A9B09A4202D0224B9A4203D113681943116080
S113A9C000E00120C0B200BD00B502000020F82361
S113A9D01B069A420BD0174B9A4208D0164B9A4248
S113A9E005D0164B9A4202D0154B9A4203D15368B4
S113A9F01943516000E00120C0B200BD00B502005F
S113AA000020F8231B069A420BD00A4B9A4208D026
S113AA10094B9A4205D0094B9A4202D0084B9A42FC
S113AA2003D193681943916000E00120C0B200BDD6
S113AA3000000000400000F8800000F8C00000F8AA
S113AA40000100F8F446002804D4494200F013F849
S113AA50404260474042002905D45FD000F00BF823
S113AA60404249426047494200F005F84942604784
S113AA7003460B43E6D40022030A8B420BD203099C
S113AA808B4219D243088B422ED2411A00D201467E
S113AA90524110467047FF2209023FD012068B42F2
S113AAA005D3121209028B4201D3121209020309BF
S113AAB08B4219D300E0090AC3098B4201D3CB01AD
S113AAC0C01A524183098B4201D38B01C01A5241EF
S113AAD043098B4201D34B01C01A524103098B42F3
S113AAE001D30B01C01A5241C3088B4201D3CB00DE
S113AAF0C01A524183088B4201D38B00C01A5241C1
S113AB0043088B4201D34B00C01A5241884200D300
S113AB10401A5241CFD201461046704708B500F0A2
S113AB2001F808BD7047FEE700B5010049B20029ED
S113AB3005D40121C006C00E81402D48016000BD2E
S113AB4000B5010049B2002905D40121C006C00E98
S113AB5081402848016000BD38B5050000248021EB
S113AB60C9054C20FFF754FC002800D00124012221
S113AB7003212800FFF7A4FA002800D001240122B1
S113AB8003212800FFF7C2FA002800D00124012283
S113AB9003212800FFF7DFFA002800D00124002257
S113ABA008211548FFF7D2FE002800D001241348DD
S113ABB00168A02212030A4302601A20FFF7C0FFB3
S113ABC01A20FFF7B1FF2000C0B232BD00B50B4818
S113ABD00168802252040A43026009480178491C32
S113ABE001700178042901D10021017000BD000029
S113ABF000E100E080E200E0C00000F80CC0044086
S113AC0048F8FF1F10B50F490F4C22000800FFF74A
S113AC1089FD2000FFF7A0FFFFF7CEFA02E00B4802
S113AC20FFF716FE0A4800780128F8D0FAD3032863
S113AC3004D0F7D20748FFF70BFEF3E70648FFF707
S113AC4007FEEFE700A0044000C0044000F8FF1F27
S113AC5048F8FF1F14F8FF1F28F8FF1F80B50C48A1
S113AC600168890403D50B490B4A116004E00A49C1
S113AC700A4A0A600A4A0A600A490B4A11600168D2
S113AC808022914320220A43026000F00FF801BDA4
S113AC900020054020C528D90420054020C5000017
S113ACA028D90000FFFF000008200540704730B499
S113ACB001220EE00368C31844680830144202D02D
S113ACC04D462C19641E1D6825601B1D241D091F7B
S113ACD0F9D10168001D0029ECD130BC7047FEE7B2
S113ACE072B60548054901600A6882F30888044879
S113ACF0804762B60348004708ED00E000A000006A
S113AD005DAC000091AD000010B5074979441831DD
S113AD10064C7C44163404E0081D0A6889188847E8
S113AD200100A142F8D110BD080000001800000085
S113AD307FFFFFFF4C000000C4F4FFFF00F8FF1F7B
S113AD400000000000F00DF8002801D0FFF7DCFF40
S113AD5000BF00BF002000BF00BFFFF753FF00F09B
S113AD6002F80120704780B500F002F801BDFEE74B
S113AD700746384600F002F8FBE7FEE780B500BF5F
S113AD8000BF024A11001820ABBEFBE726000200F8
S113AD900548014603B4684680F3098800BF00BF34
S113ADA000BF00BFFFF7CEFFA5EDF5FE004800474A
S113ADB0E5AD000000480047E5AD0000004800474D
S113ADC0E5AD000000480047E5AD0000004800473D
S113ADD0E5AD000000480047E5AD0000004800472D
S10FADE0E5AD000000480047E5AD0000B0
S903AD91BE
