S0110000427574746F6E5F49542E737265639B
S1130400FFFFFFFFFFFFFFFFFFFFFFFFFEFFFFFFF9
S113A00008FAFF1FDDA70000AFA7000067A8000043
S113A010000000000000000000000000000000003C
S113A02000000000000000000000000073A8000011
S113A0300000000000000000E5A80000E7A8000000
S113A040DDA80000DDA80000DDA80000DDA80000F8
S113A050DDA80000DDA80000DDA80000DDA80000E8
S113A060A5A80000DDA80000ADA80000DDA8000040
S113A070B5A80000BDA80000C5A80000DDA8000028
S113A080DDA80000DDA80000DDA80000DDA80000B8
S113A090DDA80000DDA80000DDA80000DDA80000A8
S113A0A0DDA80000DDA80000DDA80000DDA8000098
S113A0B0DDA80000DDA80000CDA80000D5A80000A0
S113A0C010B50200C24B0020D2B2202A3ED0242A6E
S113A0D047D02C2A50D0322A59D0362A62D0372A77
S113A0E06BD0382A74D0392A7DD03B2A00D185E040
S113A0F03D2A00D18DE0402A00D195E0452A00D1C7
S113A100A1E0492A00D1ADE04A2A00D1B9E04B2AA6
S113A11000D1C5E04C2A00D1D1E04D2A00D1DDE0C8
S113A120562A00D1E9E0612A00D1F5E0662A00D17F
S113A13001E16A2A00D10DE16B2A00D119E16C2AF0
S113A14000D125E1732A00D131E13EE180229A5801
S113A1508A4380241A5180229A58114380229950AC
S113A16033E190229A588A4390241A5190229A58A3
S113A17011439022995028E1B0229A588A43B0247E
S113A1801A51B0229A581143B02299501DE1C822A5
S113A1909A588A43C8241A51C8229A581143C8228B
S113A1A0995012E1D8229A588A43D8241A51D822B5
S113A1B09A581143D822995007E1DC229A588A43CD
S113A1C0DC241A51DC229A581143DC229950FCE019
S113A1D0E0229A588A43E0241A51E0229A58114303
S113A1E0E0229950F1E0E4229A588A43E4241A5177
S113A1F0E4229A581143E4229950E6E0EC229A585A
S113A2008A43EC241A51EC229A581143EC229950B7
S113A210DBE0F4229A588A43F4241A51F4229A581F
S113A2201143F4229950D0E0802252009A588A4374
S113A230802464001A51802252009A5811438022CB
S113A24052009950C1E08A2252009A588A438A24C3
S113A25064001A518A2252009A5811438A225200E9
S113A2609950B2E0922252009A588A439224640090
S113A2701A51922252009A58114392225200995034
S113A280A3E0942252009A588A43942464001A51F9
S113A290942252009A58114394225200995094E007
S113A2A0962252009A588A43962464001A519622A0
S113A2B052009A58114396225200995085E09822F0
S113A2C052009A588A43982464001A5198225200E2
S113A2D09A58114398225200995076E09A225200DB
S113A2E09A588A439A2464001A519A2252009A581E
S113A2F011439A225200995067E0AC2252009A58B6
S113A3008A43AC2464001A51AC2252009A58114377
S113A310AC225200995058E0C22252009A588A4303
S113A320C22464001A51C22252009A581143C22214
S113A3305200995049E0CC2252009A588A43CC24C6
S113A34064001A51CC2252009A581143CC22520074
S113A35099503AE0D42252009A588A43D424640093
S113A3601A51D42252009A581143D42252009950BF
S113A3702BE0D62252009A588A43D62464001A51FC
S113A380D62252009A581143D622520099501CE00A
S113A390D82252009A588A43D82464001A51D822E9
S113A3A052009A581143D822520099500DE0E622E7
S113A3B052009A588A43E62464001A51E622520055
S113A3C09A581143E62252009950C0B210BD0000C1
S113A3D00050064000B5002101E000BF491C814245
S107A3E0FBD300BDEA
S113A41010B503000020F8242406A3420BD0414CBD
S113A420A34208D0404CA34205D0404CA34202D0E2
S113A4303F4CA3420DD1D2B2002A02D0012A04D04B
S113A44008E05A698A435A6104E05A691143596120
S113A45000E00120C0B210BD00B5020000200300DE
S113A46012691140002901D00120FFE700BD80B529
S113A47008001100DBB2002B02D000F038F801E034
S113A48000F01BF801BD00B502000020F8231B06F4
S113A4909A420BD0234B9A4208D0234B9A4205D0C0
S113A4A0224B9A4202D0224B9A4203D11368194399
S113A4B0116000E00120C0B200BD00B50200002020
S113A4C0F8231B069A420BD0164B9A4208D0164B1F
S113A4D09A4205D0154B9A4202D0154B9A4203D1A9
S113A4E053681943516000E00120C0B200BD00B5BB
S113A4F002000020F8231B069A420BD0094B9A4213
S113A50008D0094B9A4205D0084B9A4202D0084B16
S113A5109A4203D193681943916000E00120C0B2CC
S113A52000BD0000400000F8800000F8C00000F802
S113A530000100F830B503000020364CA3420BD0D4
S113A540354CA34208D0354CA34205D0344CA34229
S113A55002D0344CA34210D18C001C59324D2540FA
S113A5608C001D518C001C59D2B21202E025ED0062
S113A5701540254389005D5000E00120C0B230BD84
S113A58030B503000020234CA3420BD0224CA3423D
S113A59008D0224CA34205D0214CA34202D0214C26
S113A5A0A3420FD18C001C590225AC438D005C5191
S113A5B08C001C59D2B2520002252A402243890041
S113A5C05A5000E00120C0B230BD30B50300002075
S113A5D0104CA3420BD0104CA34208D00F4CA34202
S113A5E005D00F4CA34202D00E4CA3420FD18C00D5
S113A5F01C590125AC438D005C518C001C59D2B20E
S113A6001500ED07ED0F254389005D5000E00120A2
S113A610C0B230BD0090044000A0044000B004402B
S113A62000C0044000D00440FFF8FFFF38B5050027
S113A63000248021C9054A20FFF742FD002800D0EC
S113A6400124280001220521FFF774FF002800D00F
S113A6500124194D012220212800FFF7D9FE0028EA
S113A66000D0012420212800FFF70DFF002800D08E
S113A67001242000C0B232BDF8B506000C0017005A
S113A6801D0039003000FFF7E7FE002813D1AF208A
S113A6908000FFF79FFE39003000FFF7DDFE002841
S113A6A0F9D02A00210005480378DC4304700378BC
S113A6B03000FFF7DCFEF1BD400000F800F8FF1F9A
S113A6C038B5050000248021C9054C20FFF7F8FCAB
S113A6D0002800D00124012203212800FFF72AFFCB
S113A6E0002800D00124012203212800FFF748FF9D
S113A6F0002800D00124012203212800FFF765FF70
S113A700002800D00124002208210448FFF780FE1D
S113A710002800D001242000C0B232BDC00000F8DF
S113A72080B50C480168890403D50B490B4A1160B4
S113A73004E00A490A4A0A600A4A0A600A490B4ABA
S113A740116001688022914320220A43026000F0D4
S113A7500FF801BD0020054020C528D9042005407C
S113A76020C5000028D90000FFFF00000820054094
S113A770704770B40123002413E00168001D1942DE
S113A78002D04D466918491E0C60091D121F042A87
S113A790FAD20D00960701D50C80AD1C1A4000D0EA
S113A7A02C700268001D002AE7D170BC7047FEE7D8
S113A7B080B50648FFF784FF0548FFF737FF2023DD
S113A7C0082204490448FFF757FFF8E700C0044093
S113A7D000A00440400000F8C00000F872B605482C
S113A7E0054901600A6882F308880448804762B614
S113A7F00348004708ED00E000A0000021A7000086
S113A80089A8000010B5074979441831064C7C44E6
S113A810163404E0081D0A68891888470100A1421B
S113A820F8D110BD080000001400000047FFFFFF2E
S113A8300400000000F8FF1F0000000000F00DF805
S113A840002801D0FFF7DEFF00BF00BF002000BFDB
S113A85000BFFFF7ADFF00F002F80120704780B59C
S113A86000F002F801BDFEE70746384600F002F8A2
S113A870FBE7FEE780B500BF00BF024A11001820C5
S113A880ABBEFBE7260002000548014603B4684658
S113A89080F3098800BF00BF00BF00BFFFF7CEFFF1
S113A8A0A5EDF5FE00480047DDA80000004800477C
S113A8B0DDA8000000480047DDA80000004800476C
S113A8C0DDA8000000480047DDA80000004800475C
S113A8D0DDA8000000480047DDA80000004800474C
S10BA8E0DDA80000FEE7FEE71D
S903A889CB
