S00C0000756172742E737265635C
S113000020FEFF1F590E0000970D0000570E000040
S113001000000000000000000000000000000000DC
S1130020000000000000000000000000F70E0000C7
S11300300000000000000000030F00007D0F00001E
S1130040750F0000750F0000750F0000750F00009C
S1130050750F0000750F0000750F0000750F00008C
S1130060450F0000750F00004D0F0000750F0000D4
S1130070930A0000550F00005D0F0000750F00008B
S1130080750F0000750F0000750F0000750F00005C
S1130090750F0000750F0000750F0000750F00004C
S11300A0750F0000750F0000750F0000750F00003C
S11300B0750F0000750F0000650F00006D0F000044
S11300C03C480021FF22920081543B4A81543B4A20
S11300D08154704710B500200100364AFF239B006D
S11300E0D35C354C145DA34204D1344BD25C002A5A
S11300F000D10121C9B2002901D00120FFE7C0B21B
S113010010BD10B5002001002A4AFF239B00D35CD8
S1130110294C145DA34204D1284BD25C042A00D19B
S11301200121C9B2002901D00120FFE7C0B210BDEE
S113013010B423491F4A204BD35CFF246343D218D5
S11301400B78D0540878401C087010BC704780B5F8
S1130150FFF7D7FF00280FD11648174941180A782E
S1130160521C9207920F0A70144940180178491CD6
S1130170017000201249087001BD0E48FF2189005A
S1130180415CFF2251434018704780B5FFF7A2FF3E
S113019000280DD10748FF21890041180A78521C14
S11301A09207920F0A70054940180178491E0170A0
S11301B001BD00000CF8FF1FFD030000FE0300005A
S11301C018FCFF1F0800000000C20100000000002E
S1130400FFFFFFFFFFFFFFFFFFFFFFFFFEFFFFFFF9
S113041010B50200D34B0020D2B2202A3ED0242AA9
S113042047D02C2A50D0322A59D0362A62D0372AC3
S11304306BD0382A74D0392A7DD03B2A00D185E08C
S11304403D2A00D18DE0402A00D195E0452A00D113
S1130450A1E0492A00D1ADE04A2A00D1B9E04B2AF3
S113046000D1C5E04C2A00D1D1E04D2A00D1DDE015
S1130470562A00D1E9E0612A00D1F5E0662A00D1CC
S113048001E16A2A00D10DE16B2A00D119E16C2A3D
S113049000D125E1732A00D131E13EE180229A584E
S11304A08A4380241A5180229A58114380229950F9
S11304B033E190229A588A4390241A5190229A58F0
S11304C011439022995028E1B0229A588A43B024CB
S11304D01A51B0229A581143B02299501DE1C822F2
S11304E09A588A43C8241A51C8229A581143C822D8
S11304F0995012E1D8229A588A43D8241A51D82202
S11305009A581143D822995007E1DC229A588A4319
S1130510DC241A51DC229A581143DC229950FCE065
S1130520E0229A588A43E0241A51E0229A5811434F
S1130530E0229950F1E0E4229A588A43E4241A51C3
S1130540E4229A581143E4229950E6E0EC229A58A6
S11305508A43EC241A51EC229A581143EC22995004
S1130560DBE0F4229A588A43F4241A51F4229A586C
S11305701143F4229950D0E0802252009A588A43C1
S1130580802464001A51802252009A581143802218
S113059052009950C1E08A2252009A588A438A2410
S11305A064001A518A2252009A5811438A22520036
S11305B09950B2E0922252009A588A4392246400DD
S11305C01A51922252009A58114392225200995081
S11305D0A3E0942252009A588A43942464001A5146
S11305E0942252009A58114394225200995094E054
S11305F0962252009A588A43962464001A519622ED
S113060052009A58114396225200995085E098223C
S113061052009A588A43982464001A51982252002E
S11306209A58114398225200995076E09A22520027
S11306309A588A439A2464001A519A2252009A586A
S113064011439A225200995067E0AC2252009A5802
S11306508A43AC2464001A51AC2252009A581143C4
S1130660AC225200995058E0C22252009A588A4350
S1130670C22464001A51C22252009A581143C22261
S11306805200995049E0CC2252009A588A43CC2413
S113069064001A51CC2252009A581143CC225200C1
S11306A099503AE0D42252009A588A43D4246400E0
S11306B01A51D42252009A581143D422520099500C
S11306C02BE0D62252009A588A43D62464001A5149
S11306D0D62252009A581143D622520099501CE057
S11306E0D82252009A588A43D82464001A51D82236
S11306F052009A581143D822520099500DE0E62234
S113070052009A588A43E62464001A51E6225200A1
S11307109A581143E62252009950C0B210BDC1222A
S11307209200825880239B001343C122920083507D
S1130730D420400008580C4A0240D42040000A50FB
S1130740D42040000858094A0240D42040000A50EE
S1130750D420400008588622D2050243D420400009
S11307600A50704700500640FFFFFFF8FFFFFFBF2D
S113077000B50100FF200A00D2B2303A0A2A02D2A0
S1130780D03108000BE00A00D2B2413A062A02D264
S1130790C931080003E06C490A68521C0A60C0B2FF
S11307A000BDF3B583B0FF2000200020002000200E
S11307B002900020694608710424002000200027CC
S11307C003980078532800D0B8E003984078FFF7E6
S11307D0CFFF060003988078FFF7CAFF050103984E
S11307E0C078FFF7C5FF2843694688716846857954
S11307F03000C0B2002809D0401E02280BD9C01E08
S113080002280DD9C01E02280CD911E000260220AE
S1130810694608710DE0761C68460671012608E0F9
S1130820032606E00B20801B69460871022600E0BF
S113083003263000C0B2032800D180E000206946BE
S113084048711EE00398210089B2405CFFF790FFD5
S1130850000100900398210089B240184078FFF706
S113086087FF010000980143029800020A00D2B2F7
S1130870024302926D18A41C68464079401C6946E4
S1130880487168464079694609798842DAD3029802
S11308900499086000E07F1C0398390089B2405C29
S11308A00D28F8D13F1F684680794000BFB2B84296
S11308B000D0032668468079401E69460979401AAB
S11308C004994860002719E00398210089B2405C2C
S11308D0FFF74EFF000100900398210089B24018F1
S11308E04078FFF745FF01000098014304983A005F
S11308F0D2B2801801726D18A41C7F1C3800C0B2DB
S1130900049949688842DFD30398210089B2405C86
S1130910FFF72EFF2F0005010398A4B200194078B9
S1130920FFF726FF28433D002818C0B2FF2803D153
S113093005480068002802D0032600E003263000A2
S1130940C0B205B0F0BD000014FCFF1F00B50100EB
S1130950012000E0401C020092B28A5C0D2AF9D109
S113096080B200BD00B5010049B2002905D40121BF
S1130970C006C00E81405048016000BD00B50100B2
S113098049B2002905D40121C006C00E81404B485C
S1130990016000BD81694A4A0A4082618169494A0D
S11309A00A40826170478169802212030A4382618E
S11309B081698022D2020A438261704700B50978B6
S11309C0491E062906D9C91F0CD0491E17D0491E35
S11309D022D02AE0816910220A43826101693A4ADD
S11309E00A40026181691022914381618169374A19
S11309F00A4082610169344A0A40026115E0816952
S1130A0010220A4382618169304A0A408261016985
S1130A102D4A0A40026108E081692C4A0A40826139
S1130A200169802292050A43026100BD00B54A783B
S1130A30002A01D0022200E0002283691A43826165
S1130A408978002901D0012100E000218269114345
S1130A50816100BD01691E4A0A400261704780B588
S1130A608169802292030A4382610C20FFF786FF8A
S1130A700C20FFF777FF01BD4169134A0A40426128
S1130A807047144942690A40426182691140816198
S1130A90704780B5002010480068800208D50F48D0
S1130AA000680F490A68002A02D0C0B20968884762
S1130AB001BD0B490860704700E100E080E200E0FE
S1130AC0FFFFF7FFFFFFFBFFFFFFFFDFFFF7FFFF66
S1130AD0FFDFFFFFFFFFFFEF14A006401CA006404E
S1130AE010FCFF1F38B500F04EF8334D2800FFF717
S1130AF051FF324C21002800FFF760FF210028003D
S1130B00FFF794FF21002800FFF7B6FF2800FFF746
S1130B10B8FF2800FFF79EFF29480168490B4903E5
S1130B201A220A4302600168264A0A40E021C904E5
S1130B30114301602800FFF736FF2800FFF78FFFFD
S1130B4031BD80B520480068FFF7B3FF01BD00B593
S1130B501E4909680902FBD5C0B21D49086000BDE1
S1130B6070B505000C000026300005E03000C0B26E
S1130B70285CFFF7ECFF761C30002100C0B2C9B23C
S1130B808842F3D370BD10B58021C9054A20FFF710
S1130B903FFC104C02220121200000F021F8022227
S1130BA00021200000F01CF80B490C48FFF7B7FDAA
S1130BB010BD05490860704700A0064000F8FF1FFB
S1130BC010A00640FFFFFFE00CFCFF1F14A006402E
S1130BD01CA0064000A0044000500640004006400F
S1130BE030B503000020114CA3420BD0104CA3429B
S1130BF008D0104CA34205D00F4CA34202D00F4C96
S1130C00A34210D18C001C590D4D25408C001D5160
S1130C108C001C59D2B21202E025ED001540254388
S1130C2089005D5000E00120C0B230BD0090044056
S1130C3000A0044000B0044000C0044000D00440C0
S1130C40FFF8FFFF80B5FFF73BFAFFF74BFF01BD4D
S1130C5038B5C4B000202E4C68462E490CC90CC0CF
S1130C600839083884225200002102A800F062F8F2
S1130C70FF20FFF7E7FF2848FFF79BFFFFF761FF1F
S1130C800AE02000FFF762FE0100C9B22000FFF76E
S1130C9067FF0A20FFF75BFFFFF71CFA0028FBD170
S1130CA0FFF76BFA02A9FFF77CFD0500FFF76DFA69
S1130CB03E20FFF74CFFEDB2002DE2D0022D0FD005
S1130CC002D3032D18D0E7E72000FFF73FFE010011
S1130CD0C9B22000FFF744FF0A20FFF738FFDBE723
S1130CE02000FFF733FE0100C9B22000FFF738FFF0
S1130CF00A20FFF72CFFCFE76846FFF727FE010025
S1130D00C9B26846FFF72CFF0A20FFF720FFC3E7AC
S1130D10340F00003C0F00001D0D000010B504004E
S1130D202000C0B2FFF704FAE4B20A2C01D1FFF7A5
S1130D300EFA10BD10B504000800110002002000D6
S1130D4000F002F8200010BD1206130A1A43130C17
S1130D501A4300BF094205D0830705D00270401C26
S1130D60491EF9D1704700001300103906D330B47E
S1130D701400150010393CC0FCD230BC490700D324
S1130D800CC000D504C0890002D30280801C002955
S1130D9000D502707047FEE780B50C4801688904ED
S1130DA003D50B490B4A116004E00A490A4A0A6058
S1130DB00A4A0A600A490B4A116001688022914379
S1130DC020220A43026000F00FF801BD0020054014
S1130DD020C528D90420054020C5000028D90000DA
S1130DE0FFFF000008200540704770B40123002471
S1130DF013E00168001D194202D04D466918491ECE
S1130E000C60091D121F042AFAD20D00960701D5A1
S1130E100C80AD1C1A4000D02C700268001D002A02
S1130E20E7D170BC704730B401220EE00368C318E8
S1130E3044680830144202D04D462C19641E1D68C3
S1130E4025601B1D241D091FF9D10168001D0029FF
S1130E50ECD130BC7047FEE772B605480549016025
S1130E600A6882F308880448804762B6034800474A
S1130E7008ED00E000000000990D0000190F0000CB
S1130E8010B5074979441831064C7C44163404E003
S1130E90081D0A68891888470100A142F8D110BDCD
S1130EA0080000002800000043FFFFFF10040000BA
S1130EB00CF8FF1F000000006FFFFFFF0C00000094
S1130EC004F3FFFF00F8FF1F0000000000F00DF81E
S1130ED0002801D0FFF7D4FF00BF00BF002000BFEF
S1130EE000BFFFF7B5FE00F002F80120704780B59F
S1130EF000F002F801BDFEE70746384600F002F8AC
S1130F00FBE7FEE780B500BF00BF024A11001820CE
S1130F10ABBEFBE7260002000548014603B4684661
S1130F2080F3098800BF00BF00BF00BFFFF7CEFFFA
S1130F30A5EDF5FE3E3E0D0A000000004572726FFD
S1130F40720D0A0000480047750F00000048004772
S1130F50750F000000480047750F00000048004767
S1130F60750F000000480047750F00000048004757
S1110F70750F000000480047750F0000FEE7F3
S9030F19D4
